:100000000C942A000C9434000C9434000C943400AA
:100010000C9434000C9434000C9434000C94340090
:100020000C9434000C9434000C9434000C94340080
:100030000C9434000C9434000C9434000C94340070
:100040000C9434000C9434000C9434000C94340060
:100050000C94340011241FBECFE5D4E0DEBFCDBF29
:100060000E9497000C94CA000C94000010BC8CE015
:1000700089B988E18AB98EE880BD8AB38FEF8ABBDF
:1000800097B387BB94B384BB91B3906F91BB9BB381
:100090008BBB88B388BB85B385BB82B382BB089515
:1000A00058E070E060E010C05D9BFECFFC01E20F05
:1000B000F31F40814CB9285F3F4F20343105A1F731
:1000C00051500196552319F0272F362FEDCF089563
:1000D000CF93DF93D998A82FB92FE82FF92F80E07D
:1000E0009D91913311F4DE9A01C0DE989081913395
:1000F00011F4DF9A01C0DF98C7E8D3E12197F1F747
:1001000000C00000D99AC7E8D3E12197F1F700C0F9
:100110000000D998C7E8D3E12197F1F700C00000AB
:100120008F5F38968830E1F6DF91CF910895CF93B5
:10013000DF93CDB7DEB7C054D1090FB6F894DEBF58
:100140000FBECDBF0E94360090E080E010E001C0FD
:10015000812F5F9BFECF2CB1E92FF0E038E0839F29
:10016000E00DF11D112441E050E04C0F5D1FE40F44
:10017000F51F20838F5F883060F39F5F983040F3D6
:10018000CA010E945000CE0101960E946800912F82
:08019000812FDFCFF894FFCFAF
:00000001FF
