S01700004763634170706C69636174696F6E312E737265635B
S11300000C942A000C9434000C9434000C943400A6
S11300100C9434000C9434000C9434000C9434008C
S11300200C9434000C9434000C9434000C9434007C
S11300300C9434000C9434000C9434000C9434006C
S11300400C9434000C9434000C9434000C9434005C
S11300500C94340011241FBECFE5D4E0DEBFCDBF25
S11300600E943E010C944E010C9400000F931F93C8
S1130070CF93DF93959820E030E0082F10E0C62F4F
S1130080D0E0A801F801022E02C0F595E7950A9484
S1130090E2F7CF0181709927E0FF02C0AA9A01C05C
S11300A0AA98FE01BE01022E02C0759567950A94B6
S11300B0E2F7DB01A170BB2760FF02C0AB9A01C06D
S11300C0AB98009711F0A89A01C0A898109711F066
S11300D0A99A01C0A998892B11F0969A01C0969803
S11300E0AB2B11F0979A01C0979887E893E1019799
S11300F0F1F700C00000959AA7E8B3E11197F1F772
S113010000C00000959887E893E10197F1F700C0DB
S113011000002F5F3F4F2830310509F0B2CFAD9872
S113012080E090E09A01082E02C0359527950A9444
S1130130E2F7D901A170BB2720FF02C0C29A01C017
S1130140C2989F01082E02C0359527950A94E2F7BC
S1130150B9016170772720FF03C0C39AC09A02C017
S1130160C398C098AB2B19F0C19AAE9A02C0C1983B
S1130170AE98672B11F0AF9A01C0AF98A7E8B3E12E
S11301801197F1F700C00000AD9AA7E8B3E1119709
S1130190F1F700C00000AD98A7E8B3E11197F1F7BB
S11301A000C0000001968830910509F0BBCFD998B2
S11301B080E090E09A01082E02C0359527950A94B4
S11301C0E2F7B9016170772720FF02C0DE9A01C00F
S11301D0DE98DF01082E02C0B595A7950A94E2F7D0
S11301E09D0121703327A0FF02C0DF9A01C0DF9870
S11301F06115710511F0DC9A01C0DC9821153105F7
S113020011F0DD9A01C0DD98672B11F0DA9A01C074
S1130210DA98232B11F0DB9A01C0DB98A7E8B3E14D
S11302201197F1F700C00000D99AA7E8B3E111973C
S1130230F1F700C00000D998A7E8B3E11197F1F7EE
S113024000C0000001968830910509F0B3CFDF911A
S1130250CF911F910F9108958AB38FEF8ABB97B303
S113026087BB94B384BB91B381BB9BB38BBB98B363
S113027088BB95B385BB92B382BB08950E942C01C1
S113028064E983ED0E9436002FE38DE093E0215072
S113029080409040E1F700C00000F2CFF894FFCF17
S9030000FC
