S0140000436F6D6D756E6963617469652E7372656332
S11300000C942A000C9434000C9434000C943400A6
S11300100C9434000C9434000C9434000C9434008C
S11300200C9434000C9434000C9434000C9434007C
S11300300C9434000C9434000C9434000C9434006C
S11300400C9434000C9434000C9434000C9434005C
S11300500C94340011241FBECFE5D4E0DEBFCDBF25
S11300600E944D000C9456000C94000010BC8CE0CF
S113007089B988E18AB98EE880BD87B38FEF87BBE1
S113008094B384BB91B3906F91BB98B398BB95B371
S11300909F6095BB92B382BB08950E9436005F9B1C
S11300A0FECF8CB15D9BFECF8CB9F9CFF894FFCF16
S9030000FC
